:1000000045C0000061C000005FC000005DC000008E
:100010005BC0000059C0000057C0000055C0000080
:1000200053C0000051C000004FC000004DC0000090
:100030004BC0000049C0000047C0000045C00000A0
:1000400043C0000041C000003FC000003DC00000B0
:100050003BC0000039C0000037C0000035C00000C0
:1000600033C0000031C000002FC000002DC00000D0
:100070002BC0000029C000002DC2000025C00000D8
:1000800023C0000021C000001FC0000011241FBEBB
:10009000CFEFD0E1DEBFCDBF11E0A0E0B1E0E4E8FA
:1000A000F3E100E00BBF02C007900D92A832B10748
:1000B000D9F721E0A8E2B1E001C01D92A635B20750
:1000C000E1F72CD30C94C0099BCF90917400992335
:1000D000E4F790917100987F981711F081E00895EE
:1000E00080E0089581B3836081BB80E280937000DB
:1000F000109271000895E4E7F0E08081846A8083C3
:1001000088E0E3CF089584E9809374000895809394
:10011000730084E88093740088E1D7CF08958160EC
:100120008093730084E88093740080E4CECF0895B8
:100130008093730084E88093740088E2C6CF0895AA
:1001400084EC80937400809174008823E4F788E540
:10015000BCDF8091730008958AB38F708ABB85B32A
:10016000826085BB85B38E7F85BB82E08A95F1F77F
:1001700000C085B3846085BB92E09A95F1F700C01A
:1001800089B3807F92E09A95F1F700C095B39B7F89
:1001900095BB95E09A95F1F795B3946095BB92E085
:1001A0009A95F1F700C099B3807892E09A95F1F7AB
:1001B00000C095B39B7F95BB95E09A95F1F78111AF
:1001C000D8CF85B38D7F85BB8AB3806F8ABB0895F6
:1001D000982F92959F708F70611104C025B32E7F68
:1001E00025BB03C025B3216025BB28E12A95F1F783
:1001F00000C025B3246025BB4BB350E1959F90010F
:100200001124942F9F70292B2BBB98E19A95F1F71D
:1002100000C095B39B7F95BB28E12A95F1F700C0FC
:1002200095B3946095BB2BB330E1839FC00111243B
:10023000922F9F70892B8BBB58E15A95F1F700C024
:1002400085B38B7F85BB88E18A95F1F700C084CFA9
:1002500008950F931F93CF93DF93EC0118C085325D
:1002600099F48E010F5F1F4F89818053883020F4ED
:1002700061E0AEDFE8010AC061E085E2A9DF61E08C
:100280008981A6DFE80102C061E0A2DF21968881B2
:100290008111E5CFDF91CF911F910F910895EF92DA
:1002A000FF920F931F93CF93DF9300D000D01F9244
:1002B000CDB7DEB77B01FE01319625E0DF011D924F
:1002C0002A95E9F724E030E00EC06AE070E0FED441
:1002D000E1E0F0E0EC0FFD1FE20FF31F8083862FBB
:1002E000972F21503109009781F7BFEFEB16FB06DE
:1002F00081F403C00F5F1F4F02C000E010E0E1E097
:10030000F0E0EC0FFD1FE00FF11F2081222391F39D
:1003100004C005E010E00E191F09992384F461E080
:100320008DE256DF0CC0E1E0F0E0EC0FFD1FE00FC6
:10033000F11F808161E0805D4BDF0F5F1F4F053053
:1003400011058CF30F900F900F900F900F90DF918D
:10035000CF911F910F91FF90EF900895843130F469
:10036000613009F4806460E0806832CF0895CF93F3
:10037000C82F29E989E591E0215080409040E1F7BC
:1003800000008AB3806F8ABB84B3846084BB84B36B
:10039000816084BB84B3826084BB8BB38F708BBB62
:1003A00085B38B7F85BB85B38D7F85BB85B38E7F02
:1003B00085BB00C000C0000085B3846085BB8BB3E3
:1003C00080628BBB25E02A95F1F785B38B7F85BBD7
:1003D00085E08A95F1F7C0DE60E08C2F8C60F8DE56
:1003E00060E088E2F5DE60E080E0B8DFCF9108955C
:1003F00060E081E0EDCE089581E08093610086B1F8
:10040000876086B987B187B986B1806886B9089553
:1004100097B1892B87B986B1806486B93699FECFAA
:1004200084B195B1089587B3806287BB88B3806239
:1004300088BB82E88FBD8BE18EBD87E893E197BDD5
:1004400086BD87E791E09BBD8ABD089587B38F6025
:1004500087BBE4E6F0E080818F608083089588B3F5
:100460008F6088BBE5E6F0E080818F6080832FEFAE
:100470008FE794E0215080409040E1F700C00000F9
:1004800088B318BA808110822FEF8FE794E0215053
:1004900080409040E1F700C0000008958AEF90E0AE
:1004A0009BBD8ABD2FEF8FEF9CE221508040904092
:1004B000E1F700C00000089584EF91E09BBD8ABD84
:1004C0002FEF8FEF9CE2215080409040E1F700C079
:1004D000000008951F920F920FB60F9211240BB6D1
:1004E0000F922F933F938F939F93EF93FF9380915E
:1004F0009C00853419F18C3479F0209140013091C1
:100500004101F901EE5BFE4F80832F5F3F4F309337
:1005100041012093400112C0E0914001F09141015E
:10052000EE5BFE4F8CE480831092410110924001FB
:1005300081E090E090933F0180933E01FF91EF9125
:100540009F918F913F912F910F900BBE0F900FBEF7
:100550000F901F901895CF92DF92EF92FF920F931A
:100560001F93CF93DF93CDB7DEB7A6970FB6F8945E
:10057000DEBF0FBECDBFFE01319688E0DF011D92C8
:100580008A95E9F738968EE1DF011D928A95E9F7A1
:10059000E2E4F1E001900020E9F731979F01225455
:1005A0003140790160E071E082E491E0D3D300E072
:1005B00010E012C0F801EE0FFF1FA1E0B0E0AC0F99
:1005C000BD1FEA0FFB1F9183808362E071E080E032
:1005D00090E0C0D30F5F1F4F009761F709811A8128
:1005E000AB81BC81F80101900020E9F73197BF0190
:1005F000601B710BFD0101900020E9F73197AF01FD
:100600004A1B5B0B161617065CF00FC0F801E80FCB
:10061000F91F2081FC01EC5CFE4F2083019602C093
:1006200080E090E0681779078CF7141615065CF0E7
:100630000FC0FD01E80FF91F2081FC01E65DFE4FB0
:100640002083019602C080E090E0481759078CF79C
:100650008AE291E062D36C01DF928F9384E391E0B0
:100660009F938F9384E091E09F938F93CE0109969F
:100670009F938F93AAD30FB6F894DEBF0FBECDBF62
:1006800000E010E003C0B3D00F5F1F4FE9E0F0E0DF
:10069000EC0FFD1FE00FF11F80818111F4CF80E08E
:1006A00090E005C0FC01EE5BFE4F10820196E8165B
:1006B000F906C4F710923F0110923E01C114D10413
:1006C00079F46BE071E084E391E047D3892B79F012
:1006D00061E171E084E391E040D3892B59F006C0D9
:1006E000CA94CD2851F483E090E009C008C081E0AD
:1006F00090E005C082E090E002C080E090E0A69625
:100700000FB6F894DEBF0FBECDBFDF91CF911F9122
:100710000F91FF90EF90DF90CF9008956CD0E2DCC6
:100720006BDE82E024DE7FDE91DE7894F4D04B0134
:100730005C011BD16B017C0180E06ADE8C01809141
:100740003E0190913F01019791F405DFEC0181306A
:10075000910519F481E64BD00AC08230910519F455
:1007600082E645D004C0039711F483E640D08AE0C6
:100770003ED0C130D10509F49FDEC230D10509F465
:100780008DDEC330D10511F489DE69DE31DE60E033
:1007900080E0E4DD86E191E05CDD60E085E0DEDDC7
:1007A000C501B40171D1DC01CB0162E070E077DDFD
:1007B00060E089E0D3DD8CE191E04BDD60E08EE02C
:1007C000CDDDC701B60160D1DC01CB0162E070E094
:1007D00066DD61E080E0C2DD82E291E03ADD61E069
:1007E00084E0BCDD62E070E0C80159DD9FCF5D9B15
:1007F000FECF8CB908959FEF92B988E18AB98FE551
:1008000089B991BB98E990939A00809399000895D3
:100810008F929F92AF92BF92CF92DF92EF92FF9210
:10082000A0E0B0E0BA2FA92F982F8827862B20E0D0
:1008300030E00F2EC12CF0E8DF2EF8E9EF2EF12C7E
:10084000F02D19C047E150E0421B530B4C015D01F4
:1008500004C0B694A794979487944A95D2F780FEE3
:1008600004C08C259D25AE25BF25F694E794D7942A
:10087000C7942F5F3F4F2031310524F3FF90EF9055
:10088000DF90CF90BF90AF909F908F9008951F936F
:10089000CF93DF93C82F2FDC80E890E038DC8C2FDB
:1008A00047DC26E02A95F1F700C02DDCC0E010C03F
:1008B00087EA91E60197F1F700C000001CDC80E8B0
:1008C00090E02DDC882331F0813009F41CDCCF5F0F
:1008D000C43670F3C436B1F033DCC82F31DCD82F06
:1008E0002FDC182F10DC8C2F90E0982F88279C018C
:1008F0002D2BE901612FCE018BDF811106C0CE01C6
:100900008C7F05C086EE93E002C087EE93E0DF9116
:10091000CF911F91089585EFBADFBC01865E9340A9
:10092000029740F480E090E0E0D0562F472F382F18
:10093000292F16C080E090E0D8D020E030E040E8D9
:1009400057E361D120E030E04AEF52E45CD120E08F
:1009500030E040EC50E433D0562F472F382F292F6A
:10096000652F742F832F922F089583EF90DFBC01A2
:10097000865E9340029740F480E090E0B6D0562F18
:10098000472F382F292F16C080E090E0AED020E00E
:1009900030E040E857E337D122E538EB4FE253E44B
:1009A00032D126E636E64BE352E409D0562F472FE4
:1009B000382F292F652F742F832F922F0895505889
:1009C000BB27AA270ED0E5C0D6D030F0DBD020F070
:1009D00031F49F3F11F41EF4CBC00EF4E095E7FB19
:1009E000C1C0E92FE7D080F3BA1762077307840705
:1009F000950718F071F49EF5FFC00EF4E0950B2EEC
:100A0000BA2FA02D0B01B90190010C01CA01A00160
:100A10001124FF27591B99F0593F50F4503E68F1BB
:100A20001A16F040A22F232F342F4427585FF3CFFC
:100A3000469537952795A795F0405395C9F77EF4CD
:100A40001F16BA0B620B730B840BBAF09150A1F016
:100A5000FF0FBB1F661F771F881FC2F70EC0BA0F9C
:100A6000621F731F841F48F4879577956795B79524
:100A7000F7959E3F08F0B3CF9395880F08F099271C
:100A8000EE0F97958795089504D06894B111B5C07D
:100A9000089598D088F09F5790F0B92F9927B751B3
:100AA000A0F0D1F0660F771F881F991F1AF0BA9532
:100AB000C9F712C0B13081F09FD0B1E008959CC059
:100AC000672F782F8827B85F39F0B93FCCF3869528
:100AD00077956795B395D9F73EF490958095709585
:100AE00061957F4F8F4F9F4F0895E89409C097FB02
:100AF0003EF490958095709561957F4F8F4F9F4FF5
:100B00009923A9F0F92F96E9BB279395F695879538
:100B100077956795B795F111F8CFFAF4BB0F11F4FB
:100B200060FF1BC06F5F7F4F8F4F9F4F16C08823A2
:100B300011F096E911C0772321F09EE8872F762FD8
:100B400005C0662371F096E8862F70E060E02AF019
:100B50009A95660F771F881FDAF7880F9695879505
:100B600097F9089597F99F6780E870E060E008952D
:100B70009FEF80EC089500240A94161617061806B5
:100B80000906089500240A94121613061406050691
:100B90000895092E0394000C11F4882352F0BB0F22
:100BA00040F4BF2B11F460FF04C06F5F7F4F8F4F85
:100BB0009F4F089557FD9058440F551F59F05F3FC0
:100BC00071F04795880F97FB991F61F09F3F79F06F
:100BD00087950895121613061406551FF2CF4695F1
:100BE000F1DF08C0161617061806991FF1CF869573
:100BF0007105610508940895E894BB276627772757
:100C0000CB0197F908950BD0C4CFB5DF28F0BADF38
:100C100018F0952309F0A6CFABCF1124EECFCADF91
:100C2000A0F3959FD1F3950F50E0551F629FF001FF
:100C3000729FBB27F00DB11D639FAA27F00DB11D58
:100C4000AA1F649F6627B00DA11D661F829F2227E1
:100C5000B00DA11D621F739FB00DA11D621F839F68
:100C6000A00D611D221F749F3327A00D611D231F3E
:100C7000849F600D211D822F762F6A2F11249F578C
:100C800050408AF0E1F088234AF0EE0FFF1FBB1FAF
:100C9000661F771F881F91505040A9F79E3F51054E
:100CA00070F060CFAACF5F3FECF3983EDCF38695FF
:100CB00077956795B795F795E7959F5FC1F7FE2BF9
:100CC000880F911D9695879597F9089597FB072EA4
:100CD00016F4009406D077FD08D00BD007FC05D0A1
:100CE0003EF4909581959F4F0895709561957F4F43
:100CF0000895AA1BBB1B51E107C0AA1FBB1FA61763
:100D0000B70710F0A61BB70B881F991F5A95A9F7B4
:100D100080959095BC01CD010895FC018827992705
:100D2000E89421912032E9F3293010F02E30C8F3F5
:100D30002B3239F02D3231F4689403C03ED0820F4B
:100D4000911D219120532A30C8F31EF4909581956E
:100D50009F4F089548E251E009C0FB01DC018D91ED
:100D6000019080190110D9F3990B0895FA01A1910E
:100D7000B081009719F41097E1F0CD01DC01CD01AD
:100D80000D90002011F4C00113C0FB01219122231A
:100D900019F02015D9F7F3CFFB012191201519F493
:100DA0001E92119606C02223C1F70D900020A1F7D4
:100DB000D001FA01A193B08308957AE0979F902D16
:100DC000879F802D910D112408950F931F93CF932A
:100DD000DF93CDB7DEB72E970FB6F894DEBF0FBE08
:100DE000CDBF0D891E8986E08C831A8309838FEF1E
:100DF0009FE79E838D83AE01475E5F4F6F89788D3D
:100E0000CE01019610D0EF81F885E00FF11F10821E
:100E10002E960FB6F894DEBF0FBECDBFDF91CF91F7
:100E20001F910F9108952F923F924F925F926F9270
:100E30007F928F929F92AF92BF92CF92DF92EF926A
:100E4000FF920F931F93CF93DF93CDB7DEB72B970E
:100E50000FB6F894DEBF0FBECDBF6C017B018A01D7
:100E6000FC0117821682838181FFBFC1CE010196EA
:100E70003C01F6019381F70193FD859193FF8191E8
:100E80007F01882309F4ADC1853239F493FD859142
:100E900093FF81917F01853221F4B60190E0D6D194
:100EA000E8CF912C212C312CFFE1F315D8F08B32B7
:100EB00079F038F4803279F08332A1F4232D206167
:100EC0001DC08D3261F0803369F4232D216016C07E
:100ED000832D8260382EE32DE4603E2E2AC0F32D50
:100EE000F8601DC037FC2DC020ED280F2A3040F0DF
:100EF0008E32B9F436FC75C1232D2064322E19C010
:100F000036FE06C08AE0989E200D1124922E11C054
:100F1000EAE02E9E200D1124222EF32DF0623F2EAA
:100F200008C08C3621F4832D8068382E02C08836A4
:100F300041F4F70193FD859193FF81917F01811128
:100F4000B3CF982F9F7D9554933028F40C5F1F4F9B
:100F50009FE399830DC0833631F0833771F0833579
:100F600009F055C020C0F801808189830E5F1F4FB2
:100F700088248394912C530112C02801F2E04F0E73
:100F8000511CF801A080B18036FE03C0692D70E0CD
:100F900002C06FEF7FEFC5014ED14C018201F32DEE
:100FA000FF773F2E15C0280122E0420E511CF801A8
:100FB000A080B18036FE03C0692D70E002C06FEFE3
:100FC0007FEFC5012DD14C01F32DF0683F2E82013A
:100FD00033FC19C0822D90E088169906A0F4B60162
:100FE00080E290E033D12A94F5CFF50137FC85916A
:100FF00037FE81915F01B60190E028D121102A943B
:1010000021E0821A91088114910479F7E1C08436B5
:1010100011F0893639F5F80137FE07C0608171811A
:10102000828193810C5F1F4F08C060817181072E00
:10103000000C880B990B0E5F1F4FF32DFF763F2E90
:1010400097FF09C090958095709561957F4F8F4F60
:101050009F4FF0683F2E2AE030E0A30133D1882E65
:10106000861844C0853731F4232D2F7EB22E2AE016
:1010700030E025C0932D997FB92E8F36C1F018F43A
:10108000883579F0AEC0803719F0883721F0A9C0D3
:10109000E92FE061BE2EB4FE0DC0FB2DF460BF2E23
:1010A00009C034FE0AC0292F2660B22E06C028E0EF
:1010B00030E005C020E130E002C020E132E0F8017C
:1010C000B7FE07C060817181828193810C5F1F4FE1
:1010D00006C06081718180E090E00E5F1F4FA30128
:1010E000F1D0882E8618FB2DFF773F2E36FE0DC0DF
:1010F000232D2E7FA22E891458F434FE0BC032FC0F
:1011000009C0832D8E7EA82E05C0B82CA32C03C049
:10111000B82C01C0B92CA4FE0FC0FE01E80DF11DD2
:101120008081803321F49A2D997EA92E09C0A2FED8
:1011300006C0B394B39404C08A2D867809F0B394A2
:10114000A3FC10C0A0FE06C0B21480F4280C922CA0
:101150009B180DC0B21458F4B60180E290E076D02E
:10116000B394F8CFB21418F42B1802C0982C212C89
:10117000A4FE0FC0B60180E390E068D0A2FE16C0C6
:10118000A1FC03C088E790E002C088E590E0B601CA
:101190000CC08A2D867851F0A1FE02C08BE201C0FE
:1011A00080E2A7FC8DE2B60190E050D0891430F4C3
:1011B000B60180E390E04AD09A94F8CF8A94F30184
:1011C000E80DF11D8081B60190E040D08110F6CF8E
:1011D000222009F44ECEB60180E290E037D02A9466
:1011E000F7CFF6018681978102C08FEF9FEF2B9694
:1011F0000FB6F894DEBF0FBECDBFDF91CF911F9128
:101200000F91FF90EF90DF90CF90BF90AF909F90A5
:101210008F907F906F905F904F903F902F900895A8
:10122000FC010590615070400110D8F780959095B1
:101230008E0F9F1F0895FC016150704001900110B6
:10124000D8F7809590958E0F9F1F08950F931F9349
:10125000CF93DF93FB01238121FD03C08FEF9FEF2D
:101260002CC022FF16C04681578124813581421748
:10127000530744F4A081B1819D012F5F3F4F31831B
:1012800020838C93268137812F5F3F4F37832683BE
:1012900014C08B01EC01FB010084F185E02D099560
:1012A000892BE1F6D80116968D919C91179701969E
:1012B00017969C938E931697CE01DF91CF911F9135
:1012C0000F910895FA01AA27283051F1203181F1B8
:1012D000E8946F936E7F6E5F7F4F8F4F9F4FAF4F3E
:1012E000B1E03ED0B4E03CD0670F781F891F9A1F51
:1012F000A11D680F791F8A1F911DA11D6A0F711D05
:10130000811D911DA11D20D009F468943F912AE010
:10131000269F11243019305D3193DEF6CF010895F8
:10132000462F4770405D4193B3E00FD0C9F7F6CF29
:10133000462F4F70405D4A3318F0495D31FD4052F1
:10134000419302D0A9F7EACFB4E0A6959795879587
:1013500077956795BA95C9F7009761057105089566
:101360009B01AC010A2E0694579547953795279512
:10137000BA95C9F7620F731F841F951FA01D0895AA
:04138000F894FFCF0F
:1013840023004C0025732C25640A00636C6F73657D
:10139400006F70656E0068756D693A0074656D70F4
:0813A4003A0070706D3A000080
:00000001FF
